:020000040800F2
:100000006806002031020008C1050008B905000893
:10001000BD050008190500085D0700080000000084
:10002000000000000000000000000000E5050008DE
:100030001D05000800000000C3050008D5060008E3
:100040004B0200084B0200084B0200084B0200085C
:100050004B0200084B0200084B0200084B0200084C
:100060004B0200084B0200084B0200084B0200083C
:100070004B0200084B0200084B0200084B0200082C
:100080004B0200084B0200084B0200084B0200081C
:100090004B0200084B0200084B0200084B0200080C
:1000A0004B0200084B0200084B0200084B020008FC
:1000B0004B0200084B0200084B0200084B020008EC
:1000C0004B0200084B0200084B0200084B020008DC
:1000D0004B0200084B0200084B0200084B020008CC
:1000E0004B0200084B0200084B0200084B020008BC
:1000F0004B0200084B0200084B0200084B020008AC
:100100004B0200084B0200084B0200084B0200089B
:100110004B0200084B0200084B0200084B0200088B
:100120004B0200084B0200084B0200084B0200087B
:100130004B0200084B0200084B0200084B0200086B
:100140004B0200084B0200084B0200084B0200085B
:100150004B0200084B0200084B0200084B0200084B
:100160004B0200084B0200084B0200084B0200083B
:100170004B0200084B0200084B0200084B0200082B
:100180004B0200084B02000800F002F800F040F8B3
:100190000AA090E8000C82448344AAF10107DA45E2
:1001A00001D100F035F8AFF2090EBAE80F0013F0F4
:1001B000010F18BFFB1A43F0010318479007000016
:1001C000B0070000103A24BF78C878C1FAD85207A7
:1001D00024BF30C830C144BF04680C6070470000C1
:1001E0000023002400250026103A28BF78C1FBD840
:1001F000520728BF30C148BF0B6070471FB500F0E1
:10020000A0FB9DE8030000F081F81FBD10B510BDF4
:1002100000F000F91146FFF7F1FF00F060FB00F07D
:100220001EF903B4FFF7F2FF03BC00F04FF9000022
:100230000948804709480047FEE7FEE7FEE7FEE77A
:10024000FEE7FEE7FEE7FEE7FEE7FEE704480549B6
:10025000054A064B70470000DD06000889010008CA
:100260006800002068060020680200206802002064
:1002700070B5064600F02EF8056806F10B0020F078
:100280000704B4429CBF002070BD2B466A68BAB117
:100290001068A04210D304F1080188423CBF5068A6
:1002A000586007D35168101941601168091B01603B
:1002B00058601460101D70BD13465268002AE7D1C3
:1002C0002146284600F00EF80028DED170BD7047A8
:1002D00070477047004870470C0000207047704717
:1002E0007047704738B504460A4600206946AFF3A8
:1002F0000080002808BF38BD02460099204600F063
:1003000067F8012038BD012000F07CB8F8B5AFF3E4
:100310000080054600200C46102000BF0646A819A4
:10032000A0420DD9324669460020AFF30080070095
:1003300008BF00F067F80098A04218BF0546C4192E
:10034000FFF7C8FF05600746F01D20F007004619BB
:10035000284600F00AF8B44208BFF8BDA21B314697
:100360003868BDE8F84000F033B800210160C0E90A
:10037000011070471020704770B50446051FFFF745
:10038000A9FF0068002C14BF446870BD002C18BF82
:10039000AC423CBF20466468F8D301680A18AA4200
:1003A00018BF456003D12A680546114401602868DA
:1003B0004119A1421CBF6C6070BD61686960216811
:1003C0000844286070BD0000004870470400002009
:1003D000034640688C46002818BF88423CBF03464D
:1003E0004068F8D318681844884207D00CF103001D
:1003F00020F00700001D411A521A0146081D0A602C
:10040000FFF7BABF10B500F039F8BDE8104000F0B2
:100410002FB870477546FFF7D7FFAE46050069460F
:10042000534620F00700854618B020B5FFF70EFFB1
:10043000BDE820404FF000064FF000074FF00008E5
:100440004FF0000B21F00701AC46ACE8C009ACE866
:10045000C009ACE8C009ACE8C0098D46704710B5CA
:100460000446AFF300802046BDE81040FFF7D9BE38
:10047000002801D000F02AB87047000010B501280C
:1004800005D0002103A000F027F8012010BD09A12C
:10049000F8E7000053494752544D454D3A204F75F7
:1004A00074206F662068656170206D656D6F72796C
:1004B000000000003A2048656170206D656D6F7224
:1004C0007920636F72727570746564000149182039
:1004D000ABBEFEE72600020070B505460C460A20BA
:1004E00000E06D1C00F011F835B128780028F8D133
:1004F00002E0641C00F009F814B120780028F8D15B
:10050000BDE870400A20AFF3008008B569468DF859
:1005100000000320ABBE08BD00BFFEE77047F0B58A
:100520000A4600210023002400BF3DE0012505FA12
:1005300001F3156805EA03049C4234D105684F00B5
:100540000326BE40B543056015794E00B5400668E8
:10055000354305601579012D02D01579022D16D18C
:1005600085684F000326BE40B543856055794E002F
:10057000B540866835438560456801268E40B543A1
:100580004560456896798E40B6B235434560C5688A
:100590004F000326BE40B543C560D5794E00B54037
:1005A000C6683543C560491C1029BFD3F0BD0A0495
:1005B000826170478161704700BFFEE700BFFEE7C0
:1005C0007047704729B1064A12680243044B1A600B
:1005D00004E0034A12688243014B1A60704700002E
:1005E00030380240704700000CB5002001900090A8
:1005F0003448006840F480303249086000BF314818
:10060000006800F4003000900198401C01900098B0
:1006100018B90198B0F5A04FF1D12A48006800F44C
:10062000003010B10120009001E0002000900098FF
:10063000012846D123484030006840F080502149CD
:10064000403108602048006840F440401E4908607E
:100650001C48083000681B490831086008460068DB
:1006600040F4004008600846006840F4A05008606C
:100670001648091F0860081F006840F08070091FB5
:10068000086000BF0F48006800F000700028F9D033
:1006900040F205700E4908600A480830006820F0F2
:1006A00003000849083108600846006840F002006D
:1006B000086000BF03480830006800F00C000828FC
:1006C000F8D10CBD003802400070004019544007BA
:1006D000003C024000B500F035F800BD10B51548EB
:1006E000006840F47000134908601348006840F047
:1006F00001001149086000200F49083108600E48C8
:1007000000680E4908400C4908600D48091D086042
:10071000081F006820F48020091F08600020064997
:100720000C310860FFF760FF4FF00060014980392D
:10073000086010BD88ED00E000380240FFFFF6FEC3
:10074000103000240448006820B103480068401EAF
:1007500001490860704700000000002000BFFEE76C
:1007600010B51820FFF784FD04460CB9002010BD19
:100770000548A0600548E060002020600021204678
:10078000E26890472046F2E795080008BB08000899
:1007900070B50546FFF7E4FF04460CB9002070BDB4
:1007A00065602046FBE7014642F228324A434FF09B
:1007B000E0235A6100229A6101221A6100BF4FF0C2
:1007C000E022106900F001021AB100F48032002A20
:1007D000F5D000224FF0E0231A619A6170470000C3
:1007E0001CB501210C20FFF7EDFE4FF440400090B6
:1007F00001208DF8040003208DF8050000208DF8FD
:1008000006008DF8070069460548FFF788FE4FF49B
:100810008070009069460348FFF781FE1CBD000010
:10082000000C02400008024070B504460D4625B198
:10083000012D0FD0022D27D119E02CB14FF48041AA
:100840001248FFF7B7FE04E04FF480410F48FFF76E
:10085000AEFE19E02CB14FF400410C48FFF7AAFEA0
:1008600004E04FF400410948FFF7A1FE0CE02CB171
:100870004FF480710648FFF79DFE04E04FF480714D
:100880000348FFF794FE00BF00BF70BD000C02409C
:100890000008024070B504460D461646294630460B
:1008A000FFF7C2FF0121A94020688843206006FAB3
:1008B00005F120680843206070BD70B505460E46FE
:1008C000002407E026FA04F101F001002146FFF7B9
:1008D000ABFF641C6868A042F4DC2E6070BD00BFF2
:1008E00000BFFFF77DFF0320FFF752FF04464FF4E0
:1008F0007A70FFF758FF002512E0012229462046B2
:10090000A36898474FF47A70FFF74DFF00222946FD
:100910002046A36898474FF47A70FFF744FF6D1C98
:10092000032DEADB002508E029462046E2689047CF
:100930004FF47A70FFF737FF6D1C082DF4DB00BF12
:10094000FEE74FF04070E1EE100A70476C090008B6
:100950000000002004000000C40100087009000825
:100960000400002064060000E00100080000000010
:040000050800018965
:00000001FF
